:020000040800F2
:10000000380F00201502000831050008E903000838
:10001000ED030008C50200085F0C000800000000A6
:100020000000000000000000000000006D06000855
:10003000C902000800000000290600087D0700082A
:100040002F0200082F0200082F0200082F020008CC
:100050002F0200082F0200082F0200082F020008BC
:100060002F0200082F0200082F0200082F020008AC
:100070002F0200082F0200082F0200082F0200089C
:100080002F0200082F0200082F0200082F0200088C
:100090002F0200082F0200082F0200082F0200087C
:1000A0002F0200082F0200082F0200082F0200086C
:1000B000E10700082F0200082F0200082F020008A5
:1000C0002F0200082F0200082F0200082F0200084C
:1000D0002F020008790B00082F0200082F020008E9
:1000E0002F0200082F0200082F0200082F0200082C
:1000F0002F0200082F0200082F0200082F0200081C
:100100002F0200082F0200082F0200082F0200080B
:100110002F0200082F0200082F0200082F020008FB
:100120002F0200082F0200082F0200082F020008EB
:1001300000F002F800F05EF80AA090E8000C82449B
:100140008344AAF10107DA4501D100F053F8AFF278
:10015000090EBAE80F0013F0010F18BFFB1A43F0A5
:1001600001031847100B0000300B000010F8013B92
:100170000A4413F0030408BF10F8014B1D1108BF17
:1001800010F8015B641E05D010F8016B641E01F8C5
:10019000016BF9D1002D15D010F8014B03F00C03C1
:1001A0000C2BA1EB04040ABF10F8013BA4EB831451
:1001B000A4EB032405F1010314F8016B5B1E01F8A5
:1001C000016BF9D5914238BF10F8013BD1D370478C
:1001D0000023002400250026103A28BF78C1FBD850
:1001E000520728BF30C148BF0B6070471FB51FBD05
:1001F00010B510BD00F033F81146FFF7F7FF00F01F
:1002000032FD00F051F803B4FFF7F2FF03BC00F039
:1002100028FD00000948804709480047FEE7FEE73F
:10022000FEE7FEE7FEE7FEE7FEE7FEE7FEE7FEE7A6
:1002300004480549054A064B70470000810700083D
:100240003101000838090020380F0020380B002049
:10025000380B0020704770477047704770477546ED
:1002600000F02CF8AE4605006946534620F0070022
:10027000854618B020B5FFF7DBFFBDE820404FF002
:1002800000064FF000074FF000084FF0000B21F080
:100290000701AC46ACE8C009ACE8C009ACE8C0094D
:1002A000ACE8C0098D46704710B50446AFF3008036
:1002B0002046BDE81040FFF7A6BF00000048704789
:1002C000D408002000BFFEE770472DE9F041024648
:1002D00000250026002000230024002791F803C0F9
:1002E0000CF00F0591F803C00CF0100CBCF1000FDE
:1002F00003D091F802C04CEA050591F800C0BCF1AA
:10030000000F31D0146800202BE04FF0010C0CFAE4
:1003100000F3B1F800C00CEA03069E4220D183002E
:100320004FF00F0C0CFA03F7BC4305FA03FC4CEA40
:10033000040491F803C0BCF1280F06D14FF0010C62
:100340000CFA00FCC2F814C00AE091F803C0BCF13A
:10035000480F05D14FF0010C0CFA00FCC2F810C098
:10036000401C0828D1D31460B1F800C0BCF1FF0FC5
:1003700034DD546800202EE000F1080C4FF0010835
:1003800008FA0CF3B1F800C00CEA03069E4221D132
:1003900083004FF00F0C0CFA03F7BC4305FA03FC83
:1003A0004CEA040491F803C0BCF1280F05D100F118
:1003B000080C08FA0CF8C2F8148091F803C0BCF1DC
:1003C000480F07D100F1080C4FF0010808FA0CF8AB
:1003D000C2F81080401C0828CED35460BDE8F081DC
:1003E000416170470161704700BFFEE700BFFEE753
:1003F00010B50446002C0BDB10210C48FFF7F2FF70
:1004000020210A48FFF7ECFFA0B200F0EDF80BE066
:1004100010210648FFF7E4FF20210448FFF7E2FF20
:10042000614288B200F0E0F810BD00000008014011
:1004300010B50446002C0BDB40210C48FFF7D2FF1F
:1004400080210A48FFF7CCFFA0B200F0D5F80BE0FE
:1004500040210648FFF7C4FF80210448FFF7C2FF90
:10046000614288B200F0C8F810BD000000080140E9
:1004700010B50446002C0DDB4FF480710D48FFF7DA
:10048000B1FF4FF400710B48FFF7AAFFA0B200F0D4
:10049000BBF80DE04FF480710648FFF7A1FF4FF461
:1004A00000710448FFF79EFF614288B200F0ACF88B
:1004B00010BD00000008014010B50446002C0DDB03
:1004C0004FF480610D48FFF78DFF4FF400610B483A
:1004D000FFF786FFA0B200F09FF80DE04FF48061B7
:1004E0000648FFF77DFF4FF400610448FFF77AFFED
:1004F000614288B200F090F810BD00000008014091
:1005000008B500F017F80121042000F09FF8102032
:100510008DF803004FF47F60ADF8000003208DF8E4
:10052000020069460148FFF7D0FE08BD00080140FF
:100530007047000000B589B00121084600F076F848
:100540000121042000F082F80F20ADF820001820CF
:100550008DF8230003208DF8220008A92148FFF719
:10056000B4FE4FF0804000F06FF90020ADF81A00A3
:10057000ADF816006320ADF8180040F2CF20ADF8BA
:10058000140000208DF81C0005A94FF0804000F0F9
:10059000A1FA01A800F08AFA6020ADF8040000205A
:1005A000ADF80C000120ADF806003220ADF80A00CD
:1005B00001A9400700F04EF901A94FF0804000F07A
:1005C00095F901A94FF0804000F0E2F901A94FF040
:1005D000804000F02DFA0121880700F018F909B0D9
:1005E00000BD00000008014010B5044621464FF050
:1005F000804000F065FA10BD10B5044621464FF06A
:10060000804000F05FFA10BD10B5044621464FF05F
:10061000804000F059FA10BD10B5044621464FF055
:10062000804000F053FA10BD7047000029B1064A1F
:10063000D2690243044BDA6104E0034AD26982437F
:10064000014BDA61704700000010024029B1064AF0
:1006500092690243044B9A6104E0034A926982431F
:10066000014B9A617047000000100240704710B5BE
:1006700000F002F810BD00000CB5002001900090C1
:100680003348006840F480303149086000BF30488A
:10069000006800F4003000900198401C0190009820
:1006A00018B90198B0F5A06FF1D12948006800F49D
:1006B000003010B10120009001E00020009000986F
:1006C000012843D12348006840F010002149086008
:1006D0000846006820F0030008600846006840F003
:1006E000020008601A484068194948600846406896
:1006F00048600846406840F48060486008464068AA
:1007000020F47C1048600846406840F4E8104860D7
:100710000846006840F08070086000BF0C48006820
:1007200000F000700028F9D00948406820F003006C
:10073000074948600846406840F00200486000BF32
:100740000348406800F00C000828F9D10CBD0000F7
:10075000001002400020024010B50020FFF748FEC4
:100760000020FFF765FE0020FFF782FE02480078B8
:1007700040B2FFF7A1FE10BD00000020704700004E
:1007800010B51348006840F00100114908600846A0
:100790004068104908400E494860084600680E4904
:1007A00008400B4908600846006820F48020086073
:1007B0000846406820F4FE0048604FF41F0088603F
:1007C000FFF755FF4FF000600449086010BD0000BE
:1007D000001002400000FFF8FFFFF6FE08ED00E009
:1007E00010B50121880700F01EF8012808D105483E
:1007F0000088401C034908800121880700F004F8A4
:1008000010BD00000A080020CA430282704721B1CF
:10081000028842F00102028004E002884FF6FE7373
:100820001A400280704730B50246002000230024A1
:10083000158A05EA0103958905EA010413B10CB193
:10084000012000E0002030BD01894FF6F872114010
:100850000181704770B5002400220023058C4FF6FB
:10086000FE7635400584028C8388048B4FF68F75A5
:100870002C40B51E2C400D882C43751E2A400D8936
:100880002A434D882A43144DA8420BD0134DA84249
:1008900008D0134DA84205D0124DA84202D0124DE7
:1008A000A84213D14FF6F7752A404D892A434FF6D7
:1008B000FB752A408D882A434FF6FF652B404FF683
:1008C000FF552B408D892B43CD892B438380048397
:1008D000CD888586028470BD002C01400034014023
:1008E00000400140004401400048014070B5002430
:1008F00000220023058C4FF6EF7635400584028CEC
:100900008388048B48F6FF752C404FF6FF452C403A
:100910000D884FF6FF7606EA05252C434FF6DF7566
:100920002A400D8906EA05152A434D8806EA051571
:100930002A43154DA84202D0144DA8421DD14FF6AE
:100940007F752A404D894FF6FF7606EA05152A4342
:100950004FF6BF752A408D8806EA05152A434FF6E3
:10096000FF352B404FF2FF752B408D8906EA850538
:100970002B43CD8906EA85052B4383800483CD88EC
:100980000587028470BD0000002C01400034014046
:1009900070B5002400220023058C4FF6FF66354019
:1009A0000584028C8388848B4FF68F752C404FF61C
:1009B000FC752C400D882C434FF6FF552A400D89BD
:1009C0004FF6FF7606EA05252A434D8806EA0525F7
:1009D0002A43154DA84202D0144DA8421DD14FF212
:1009E000FF752A404D894FF6FF7606EA05252A4312
:1009F0004FF6FF352A408D8806EA05252A434EF634
:100A0000FF752B404DF6FF752B408D8906EA0515C5
:100A10002B43CD8906EA05152B4383808483CD883B
:100A20008587028470BD0000002C01400034014025
:100A300070B5002200230024058C4EF6FF76354069
:100A40000584038C8488828B48F6FF752A404FF614
:100A5000FF452A400D884FF6FF7606EA05252A4312
:100A60004DF6FF752B400D8906EA05352B434D8861
:100A700006EA05352B430B4DA84202D00A4DA84289
:100A800008D14BF6FF752C408D894FF6FF7606EAAC
:100A900085152C4384808283CD88A0F84050038440
:100AA00070BD0000002C0140003401400021018095
:100AB00041808180C180018141818181C1817047F4
:100AC000818670470187704781877047A0F8401082
:100AD00070470000002202881D4B98420ED01D4B2B
:100AE00098420BD0B0F1804F08D01B4B984205D0F4
:100AF0001A4B984202D01A4B984204D14FF68F738A
:100B00001A404B881A43174B984207D0164B98420D
:100B100004D04FF6FF431A40CB881A4302808B88DB
:100B200083850B8803850A4B98420BD0094B98426A
:100B300008D00E4B984205D00D4B984202D00D4B79
:100B4000984201D10B7A038601238382704700000B
:100B5000002C014000340140000400400008004027
:100B6000000C004000100040001400400040014014
:100B7000004401400048014010B540F225511D4895
:100B800000F03EF810B31B4800F064F8C4B21A48F5
:100B9000008800F40040C8B91748008800F480407D
:100BA00060B10A2C03D000201349088020E01248CD
:100BB000008840F400401049088019E00D2C06D14F
:100BC0000D48008840F480400B49088010E00A4836
:100BD0000088C0F30D0009490C5407480088401CE8
:100BE0000549088008460088C72801DD00200880E4
:100BF00010BD000000380140080000200C08002053
:100C000070B50246002400230025002040F66A1635
:100C1000B14200D100BFC1F3421501F01F0301260C
:100C200006FA03F3012D02D19689334006E0022D26
:100C300002D1168A334001E0968A33400C12012615
:100C400006FA04F41688344013B10CB1012000E018
:100C5000002070BD01468888C0F30800704700BFBF
:100C6000FEE700BF7047FFF74BFC01E0FFF774FDA4
:100C7000FCE70000940C0008000000200C080000B5
:100C80006C0100087C0E00080C0800202C070000F6
:100C9000D001000873640001501003050911FF1111
:100CA0008905C300E000F000F81600083A4428FF68
:100CB00011AA440001500B830138448292927401BE
:100CC000831120087C44FF017D7D7D0441054004A3
:100CD0007D01FF849201026198033B01017E814105
:100CE0009149F20101011BC230083F3F0303F31396
:100CF0001101100601F1116181402005816111F19E
:100D00004733414107200401C12120A321C11431EF
:100D1000193137040736D33303033F3F426006E0FF
:100D2000E000007FA8127FBF40040618060A1008E2
:100D3000000040407F4040A410041F204001A32039
:100D40001F143300600E6004300C03460534C210DB
:100D5000040707060170090404048444444484071A
:100D600080050484C4041501120A71112140073D55
:100D70000707C9200F0000101814121100000F10EF
:100D800010100F0F131F1015600D081012120D0018
:100D9000001800000D120A51295130015E015280E5
:100DA00001013B4514047F030CA915DE1C053854D2
:100DB00054582503080A2004047800003C40407C75
:100DC0002000092CFFAAAAAA280800FF68100626FE
:100DD00049494932100C0671020408107F00049D35
:100DE00001040D9D0004156343F80801240500F873
:100DF0001860E82404806018235720202923E0107D
:100E000021A310E01449B4313908043C8868186300
:100E10000D15FF037DEA039DFF0371144DFF031DB4
:100E200006043D2E040942E91C0640202020C04A49
:100E300004110721EA3E40520452600E81187129C4
:100E400051070D4769031C060C0A0A090C0004151A
:100E50006B2D00042004080F081510050809090E61
:100E6000071D180430050909090F0A512951070DFA
:0C0E7000FF00040D22000402000000003E
:0400000508000131BD
:00000001FF
